:020000040800F2
:1000000088180020D96C0008936B0008956B0008D5
:10001000976B0008996B00089B6B000800000000BC
:100020000000000000000000000000009D6B0008C0
:100030009F6B000800000000A16B0008A36B000884
:100040003D6D0008416D0008456D0008496D0008D0
:100050004D6D0008516D0008556D00087D6B00085E
:10006000596D00085D6D0008616D0008656D000840
:10007000696D00086D6D0008716D0008756D0008F0
:10008000796D00087D6D0008816D0008856D0008A0
:10009000AF6B0008896D00088D6D0008916D000838
:1000A000956D0008996D00089D6D0008A16D000810
:1000B000A56D0008A96D0008AD6D0008B16D0008C0
:1000C000B56D0008B96D0008BD6D0008C16D000870
:1000D000C56D0008C96D0008CD6D0008D16D000820
:1000E000D56D0008D96D0008DD6D00082DE9F04FD1
:1000F0000FF2A41CA1B0DCE90089CDE900892A9D9A
:10010000DFF8DC9B049100248DF843500D944FF0F0
:10011000FF38824616461F460FE0B3462C461BF8B2
:10012000011B0498D0470028049000F0A2800D988D
:10013000401C641E0D90F2D176193078252808D124
:10014000002100220791089209910A920B910C92CA
:100150000DE06A464146304600F0F0FF050001D14F
:100160000D98A1E0D9D50125E6E741F0010116F887
:10017000010F2028F9D023280CD02B2804D02D28BB
:1001800005D0302809D076E041F00201EFE741F0D8
:100190000401ECE741F00801E9E741F01001E6E76E
:1001A0000F9209E00F98484505DA00EB800402EB56
:1001B0004402303A0F92761C3278A2F130000A28BD
:1001C000F0D330782E2818BFCDF8388022D116F819
:1001D000010F2A2807D138683860761C50F8042BA4
:1001E00038600E9216E02D280CBF761C00200022ED
:1001F0000E920AE040B90E9A4A4505DA02EB8204F3
:1002000003EB4403303B0E93761C3378A3F13002AA
:100210000A2AEFD3ADF8401021A0317800F098FF02
:1002200008B116F8010B8DF842009DF842006828CD
:1002300004D1307868280AD1622105E06C2804BF17
:1002400030786C2803D171218DF84210761C12A8E9
:1002500006903A4616F8013B02A9504600F064F8B1
:1002600038B912AA02A9504600F0C8F900287FF553
:1002700064AF404618E02A2892D13A683A6052F8B2
:10028000040B3A6000280F9003D540420F9041F0D4
:100290000401761C95E7000000000000000000004B
:1002A000686A6C747A4C000021B0BDE8F08F622857
:1002B00020D0682811D06A2803D06C2827D0712854
:1002C00025D10868C01D20F007000860D0E9002390
:1002D00008300860194610467047002A0A680A600C
:1002E000106803D0121D0A6000B217E0121D0A60E8
:1002F00080B217E0002A0A680A60106803D0121D55
:100300000A6040B20AE0121D0A60C0B20AE0002A88
:100310000A680A60106803D0121D0A60C11770478E
:10032000121D0A60002170477CB50D4611461C461F
:100330002E69B4F1250200F04F811C3A00F0848050
:10034000121F022A40F280800E3A00F00981521FEB
:1003500059D0093A78D0921E16D0521E35D0521E6E
:10036000022A71D9121F30D0521F00F09880521EFD
:1003700049D0521E00F0E280D21E00F0FF80921E93
:1003800041D0D21E3FD02DE195F83A406C2C09D0D7
:100390006869421C6A610A680A6052F8043B0A6094
:1003A000335429E10A680A6052F8043B0A6000935A
:1003B000002201924FF0FF332B636A46294600F07A
:1003C00098F9002840F1188103E195F83A000122DC
:1003D000FFF76DFFC5E90001002904D56869411CDC
:1003E00069612D220DE0288F810704D56869411CC1
:1003F00069612B2205E0C00721D56869411C69614C
:10040000202232541BE095F83A000022FFF74FFFFC
:10041000C5E9000195F83800010710D5D5E900239A
:10042000002B08BF002A0AD044F02000782806D10B
:10043000686930213154401C421C6A6134542146A1
:1004400068693044E86087E00868C01D20F0070054
:100450000860D0E9002308300860C5E90023D5E929
:100460000001C80F04D06869411C69612D220DE0AC
:10047000288F810704D56869411C69612B2205E03A
:10048000C00704D56869411C69612022325468693B
:100490003044E8602146284600F036FAACE005F129
:1004A0003A02507820B14FF0FF340FF6043074E078
:1004B0001078622808D0682824D06A2812D06C28C6
:1004C0002ED071280ED02BE00A680A6052F8040B77
:1004D0000A6020B94FF0FF340FF6EC205DE0E96AC6
:1004E000017089E00A680A6052F8040B0A6020B9BA
:1004F0004FF0FF340FF6D0204FE0EA6AD317C0E97F
:10050000002379E00A680A6052F8040B0A6020B9F7
:100510004FF0FF340FF6B0203FE0E96A01806BE056
:100520000A680A6052F8040B0A6020B94FF0FF34E1
:100530000FF6942031E0E96A01605DE00A680A6024
:1005400052F8040B0A60002120F0000221F0FF3372
:10055000C5E90023EE607821284600F02DF94BE034
:100560006C2285F83A200B680B6053F8042B0B6063
:1005700052BB4FF0FF340FF684200EE095F83A207E
:100580006C2AF0D00868086050F8044B0860EC60F2
:100590003CB94FF0FF340FF6482000F001FE201A5E
:1005A00076BD2E6B002E04D5204600F019FE0446C1
:1005B00008E032460021204600F03CFE002814BF2F
:1005C000041B3446AC6117E0294600F092F800287D
:1005D00012D54FF0FF3076BD6869411C6961252254
:1005E000325409E06969481C68612522725421006F
:1005F00002D0431C6B613454002076BD2DE9F041DC
:100600000E4605469046726B7069316AB46A121ADA
:10061000B069521A716A121AF069521A121A96F8CF
:100620003800141B41070DD4002C0BDD2746B068A1
:100630002021A8470028B06057D0F06A401C7F1ED8
:10064000F062F4D1736942463146284600F098FCC6
:1006500000284AD1376A002F0ADDB0683021A84748
:100660000028B06041D0F06A401C7F1EF062F4D1D7
:10067000B369F2683146284600F082FCA8BB776A6D
:10068000002F09DDB0683021A847B06068B3F06A78
:10069000401C7F1EF062F5D1F068B169F369421821
:1006A0003146284600F06CFCF8B9B76A002F09DD26
:1006B000B0683021A847B060B8B1F06A401C7F1E16
:1006C000F062F5D196F8380041070BD5002C09DD12
:1006D000B0682021A847B06038B1F06A401C641EA1
:1006E000F062F5D10020BDE8F0814FF0FF30BDE8A9
:1006F000F0812DE9F8470D46A3B02F6B002F064679
:10070000904648BF6FF000470FF60C1400F0BEFD96
:10071000D4E90023696B4018CDE90123812828BF63
:100720004FF0FF3042D20024002F33DDD8F8001004
:1007300001AA684600F004FD8146B9F1000F38D4E3
:10074000D8F8000010B9B9F1010932D44F4521DBC6
:100750006869484481280AD30021696303AA2946AD
:100760003046FFF74BFF040014D40020686103AB50
:10077000D5F814A04A46694603EB0A0000F090FD44
:10078000CA44C5F814A058F8040B002818BFA7EBFA
:100790000907C9D14CB903AA29463046FFF72EFFF5
:1007A000044614B9002068616863204624B0BDE89F
:1007B000F0874FF0FF34F8E72DE9FC4307466F2937
:1007C0003E6908BF082405D041F02000782814BFF6
:1007D0000A2410243C25D7E90023642918BF69297D
:1007E0009046994605D1002B03D5D8F1000869EB56
:1007F0004909B9F1000F08BFB8F1000F1FD1386BDC
:10080000E8B9082C4CD197F83800010748D53020BA
:100810003B2586F83B0043E000280ED597F83800CA
:1008200000F01400102808D17B6B7969386A5B1AD4
:100830001B1A9A1A002AC8BF3A62BDE8F3838DF8E2
:100840000010404649462246E31700F07DFD303255
:10085000D0B26D1E3A28019504DB9DF80000A0F18E
:1008600051018A187255404649462246E31700F066
:100870006BFD80465FEA010908BFB8F1000F03D0A5
:10088000F86871198842DCD3082C09D197F8380030
:10089000010705D5705D302802D06D1E30207055DF
:1008A000C5F13C02BA617119F960386B8242B3DA62
:1008B000821A3A624FF6EF70398F01403987BDE8EE
:1008C000F3832DE9D04306460F4614464FF0000847
:1008D000DFF8109412E0E00707D542464B46304659
:1008E000394600F049FE06460F4640464946424614
:1008F0004B4600F041FE641080468946002CEAD148
:1009000030463946BDE8D0832DE9F84F05468A4682
:100910004AF020048EB0D5E90089612C02AE09D0DE
:10092000286B002848BF062003D408BF672C01D1DC
:1009300001202863D5E900014A005215521C0DD14F
:100940000B030BD0AAF1610103201A29A86102D27E
:100950000FF2CC6110E00FF2CC610DE04A005215AD
:10096000521C0ED10B030CD1AAF1610103201A29EC
:10097000A86116D30FF2B461E868032200F090FC7E
:10098000C0E1CDE90C01DDE90C2323F00043B3F510
:10099000801F0DD20027002B08BF002A019703D12A
:1009A00011E00FF28461E7E701AA00F0B7FE0AE068
:1009B000CD48CE4900EB1350DDE90C2301900B40EC
:1009C000CB4910461943C5E90001612C0DD1E868F7
:1009D00030210170821CBAF1610FEA600CBF7821EE
:1009E000582141706869801C6861D5E90001CDE932
:1009F0000C01DDE90C2333F0004104BF0028002383
:100A000000F04881612C40F0A080286B4946002806
:100A10004CBF4FF0210B00F1010B40460022002398
:100A2000DDE90C8900F0B2FE01990BF1010738BF36
:100A300089F00049091F002F01918DF808200DF160
:100A4000090040F33581A9490091064640464946D0
:100A50000022002300F0B2FE80F029814800400D02
:100A600000F11C0211D0002A0FDD40F2FF739A4200
:100A700005DBA04909F000400143002011E0009B84
:100A8000194041EA025140460BE028F0000039F0DD
:100A9000004108BF00280FBF49461C22494600F00C
:100AA000A5FE8046894600F03FFFFF1F002F044649
:100AB00009DD00F057FF02460B464046494600F06C
:100AC00063FF80468946F01D072104E004F00F0211
:100AD00000F8012D2411002C01DD491EF6D5491E18
:100AE0005CBF002200F8012DF9D5DCE0002019469A
:100AF00002AA0A4400E05B1E12F80149491E844222
:100B0000F9D00F2804D10DF10900425C521C425467
:100B1000002904D50198001D02AE5B1C0190581EEF
:100B20000CD43118AAF13A040A783032D7B23A2FED
:100B3000A8BFA218401E01F80129F5D5286B00288E
:100B400040F1A780591E2963A3E001996A4A47F240
:100B50009750414391FBF2F2019229F00046D2F105
:100B6000070204DD40463146FFF7ABFE0AE0524281
:100B700000206249FFF7A5FE02460B46404631467B
:100B800000F074FF8046662C286B06BF019F0A3771
:100B900006273F18142FC8BF142730208DF80800EF
:100BA00089460DF1090000E03046002F34DD06468D
:100BB0004046494601F07EF801460A4606F1080320
:100BC00004200A26B2FBF6F606EB860EA2EB4E02D6
:100BD000303203F8012C0A22B6FBF2F202EB820E4D
:100BE000A6EB4E063036401E03F8026DE9D1083FF1
:100BF000002F03F10806D7DD084601F06FF8024622
:100C00000B464046494600F0BFFE00223C4B00F038
:100C1000B3FC80468946CBE70DF10901401A0DF17E
:100C2000090604E00199491E401E0191761C3178A5
:100C30003029F7D0662C02D10199491C03E0652CBC
:100C40000CBF012100212B6BCB189842B8BF431E6B
:100C5000002B1ED4834204DAF05C3528A8BF39206B
:100C600000DA30201946721E02EB010800E05B1E1C
:100C700018F80199491E8145F9D0392802D1705CD4
:100C8000401C7054002904D50198401C16465B1C7A
:100C90000190019800B200901BB23246514628469E
:100CA00000F034F82EE0C61D002F3FF7CFAE3046DF
:100CB0000DF10901401A03465845C8BF5B46002B99
:100CC0000DF109063FF53AAF8342BFF60FAF0DF1C4
:100CD0000900C15C07297FF709AF0F2007E7000073
:100CE000CBCCCC0C0000244002FCFFFFFFFF0F80A8
:100CF0000000E03F0000F07FA08601000000F03F10
:100D000084D797410FB0BDE8F08F00002DE9F84778
:100D100083B006468A461746984600F013FAB8F1A3
:100D2000000F406A356B90F8009002DC4FF001082C
:100D3000BFA74AF02000BDF93040662808BF641CF8
:100D400015D0672840F0848014F1040FC0F286802B
:100D5000AC4280F2838096F83800641C010702D40C
:100D6000A845B8BF454620B22D1A48BF00250FFA46
:100D700084FAF068B169BAF1000F25DC4A1C30230F
:100D80004354002D03DC96F83800010703D5F068C2
:100D900000F80290521C15EB0A0FB8BF6C4220B24B
:100DA000441941424445B8BFA046B26171620FFA8E
:100DB00088F5F561F068B3692A463946184400F0B1
:100DC0006FFA641BB462C4E022B29045084417DA9B
:100DD0004246394600F064FAB0694044B061AAEB7B
:100DE0000801002D716203DC96F838100A0705D55A
:100DF000F16801F80090F069401CF061B562A8E06C
:100E0000394600F04DFAB069002D5044A8EB0408B3
:100E100003DC96F838100A0703D5F16801F8009052
:100E2000401CB0610FFA88F08542F368B069B8BF22
:100E3000A8460FFA88F207EB0A01184400F030FACE
:100E4000B1690FFA88F00144B161281A706280E03C
:100E5000BAF1610F14D14FF0700A16E0A84504DA18
:100E600096F838100A0758BF45466D1E48BF002542
:100E7000BAF1670F14BF4FF0450A4FF0650A04E05E
:100E8000BAF1410F08BF4FF0500AB169F368481C2E
:100E9000B061002D17F8012B5A5403DC96F8381076
:100EA0000A071BD5F168431CB36101F80090002DBF
:100EB00014DDA8F101080FFA88F039468542F76879
:100EC000B8BFA8460FFA88F2F81800F0E9F9B0693F
:100ED0000FFA88F108446D1AB0617562F068B16963
:100EE0000844002C80F800A003D42B224270811CFF
:100EF00003E02D2141706442811C00206A460AE013
:100F000023460A2493FBF4F404EB8405A3EB450386
:100F100002F8013B401C24B2002CF1DC012806DC65
:100F20004AF02002652A04BF302201F8012B48B99B
:100F3000302001F8010B07E0401E1DF8003030336F
:100F400001F8013B0028F7DCF268B0691044091A87
:100F5000F16196F8380000F0140010280DD1726984
:100F6000B169706A8A18F1698218B06A8A188218A1
:100F7000706B8242BCBF821A326204B0BDE8F08757
:100F8000F8B505460E4617461C46002074B117F802
:100F9000011BB068A847B06030B1F06A401CF06235
:100FA0000020641EF3D1F2BD4FF0FF30F2BD00000F
:100FB0007072696E74665F733A20256E206469737F
:100FC000616C6C6F776564007072696E74663A204C
:100FD00062616420256E20617267756D656E7400B4
:100FE0007072696E74665F733A2062616420257363
:100FF00020617267756D656E740000007072696EB5
:1010000074665F733A2062616420256C732061729C
:1010100067756D656E740000000000000000000040
:101020006E616E004E414E00696E6600494E46008C
:101030003000F0B40246106895681318506803EB4E
:101040005004C0071DD54D441BE013F8017B05F883
:10105000017B491EF9D1A0B1B60813F8011B06F0B7
:101060000306032E08BF13F8016B01EB062149426A
:10107000801C294405D011F8016B05F8016B401E56
:10108000F9D1A3420ED013F8016B16F0030104BF8F
:1010900013F8011BC91C30090F28DAD113F8010B12
:1010A0000F30D6E7F0BC02F10C007047FFE7413883
:1010B0001A288041C00F7047A0F10901052901D30A
:1010C000202801D10120704700207047A0F1410184
:1010D0001A2938BF203070471B48704770B45368D6
:1010E000D418042B09DA41B1057804F8015B10F833
:1010F000016B16B15B1C491EF3E7536070BC70476F
:1011000038B514461D4661B1FFF7E8FF61686A6BA8
:10111000204690476FF00102811A02D0491E01D08B
:1011200001E003E005E00021616032BD6FF00100E5
:1011300032BD4FF0FF3032BDDA6B1047024BDFE7B4
:10114000014BF9E701487047C40100208C010020E1
:10115000C9B202788A421AB11CBF10F8012FF9E710
:1011600018BF0020704730B4002513E050F8042B5E
:10117000D30744BFA9F101039A18091F042942F8B3
:10118000045BFAD213468C0744BF15809B1CC90729
:1011900048BF1D7050F8041B0029E7D130BC7047D0
:1011A00080B500B906A005490B681BB122220021B9
:1011B000984701E000F09FFD222002BD6814002046
:1011C000636F6E73747261696E742068616E646CB3
:1011D00065723A20626164206D65737361676500B2
:1011E00000F10103810704D010F8011B820781B1CF
:1011F000FAD10268A2F10131914311F0803104BFAC
:1012000050F8042FF6E709BAB1FA81F100EBD100EA
:10121000401CC01A7047B1F5807F02D34FF0FF30F9
:1012200070470170012070470078401E8041C04324
:10123000C00F7047C9B2830706D0521E22D310F8E0
:10124000013B9942F7D11FE0083A13D302F104029F
:1012500041EA012141EA014150F8043B121F21BF3C
:101260004B40A3F1013C2CEA030C1CF0803FF3D06F
:10127000C9B2001F083210F8013B521E28BF91EA84
:10128000030FF8D818BF0120401E704780B5FFF744
:1012900023FF006C02BD0268531C0360117070478D
:1012A00062B38B0708D0521E11F8013B00F8013BD6
:1012B00000F024808B07F6D1830740F0208000BF28
:1012C000103A07D330B4B1E83810103AA0E838101B
:1012D000F9D230BC530724BFB1E80810A0E80810C9
:1012E00044BF51F8043B40F8043BD20724BF31F817
:1012F000022B20F8022B44BF0B7803707047121F9B
:1013000017D35B0009D151F8043B20F8023B1B0CBA
:10131000121F20F8023BF6D20BE051F8043B00F814
:10132000013B1B0A20F8023B1B0C121F00F8013B7B
:10133000F3D238BF121D521E24BF11F8013B00F832
:10134000013BF8D870470102BBBBE1B1B2F5803F69
:1013500080F07E80022A1ED98C46B1FBF2F102FB9E
:1013600011C31B0443EA1043B3FBF2FC02FB1C3322
:1013700080B240EA0343B3FBF2F002FB103240EAD2
:101380000C4000237047022A05D98446B0FBF2F0D6
:1013900002FB10C270474AB105D100F001024908B2
:1013A0005FEA3000704700220023704700F0A6BCBF
:1013B0000B000200002100207047904271EB030CEB
:1013C000F6D3B3F5803F2FD2F0B5B3FA83F7B1FA75
:1013D00081F4A7F10F0E3D1B5340CEF1200602FA17
:1013E0000EF2F3415340B5F10F0746D80F3C2C44A1
:1013F0004140C4F12006A040F1414140B1FBF3F669
:1014000003FB1611A2FB0645001BA94102D2761E62
:101410008018594180EA010221FA0EF362FA0EF2B5
:1014200000215A403046F0BD30B4B1FBF3FC03FB61
:101430001C11A2FB0C45001BA94103D2ACF1010C0D
:101440008018594130BC02460B4660460021704767
:10145000B2F1807F65D3F0B5B2FA82F7B1FA81F4C8
:10146000C7F10F063D1B22FA06F307F1110EF241F8
:1014700020355A40B5F10F07B8D94140C4F12006D4
:10148000A040F1414140B1FBF3FC03FB1C11A2FB66
:101490000C45001BA94103D2BCF1010C8018594135
:1014A0000F2F12D30F3FC90341EA5041B1FBF3F6AE
:1014B00003FB1611A2FB0645D4EBC030A94102D2B2
:1014C000761E8018594146EACC3C07B34140C7F12B
:1014D0002006B840F1414140B1FBF3F603FB161181
:1014E000A2FB0645001BA94102D2761E8018594175
:1014F00080EA010221FA0EF3C7F1200462FA0EF22B
:101500000CFA07F05A402CFA04F13043F0BD80EA9F
:10151000010221FA0EF3002162FA0EF260465A40EF
:10152000F0BD8C46B1FBF2F102FB11C31B0243EA92
:101530001063B3FBF2FC02FB1C331B024CEA0020DD
:1015400043EA1063B3FBF2FC02FB1C331B024CEAC0
:10155000002043EA1063B3FBF2FC02FB1C331B02C6
:101560004CEA002043EA1063B3FBF2FC02FB1C329E
:101570004CEA002000237047B0B581EA030C0CF060
:10158000004C40F2FF7515EA11541DBF15EA1357C0
:10159000AC42AF4239E0E41923EA455343F48013E7
:1015A000C90241F0004141EA505EC7021100A7FBA9
:1015B000020200284FF00000EEFB01204FF0000176
:1015C000E3FB072118BF42F0010240180021494106
:1015D000E3FB0E01A4F580640F0302D252004041E8
:1015E000494154F101046CDD470872F1004250F1A9
:1015F000000051EB0451A1F580115CBF41EA0C01E0
:10160000B0BD4CEA05510020B0BD05EA1357AC420D
:1016100014BFAF4241E050EA410E1CBF52EA430EF4
:1016200002E061460020B0BD24423C441BD15FEA89
:10163000070EF6D0090302BF01460020AEF1140EDA
:10164000B1FA81F7AEEB070401FA07FE0C37C7F1D8
:10165000200100FA07F7C8404EEA000E23EA45537E
:1016600043F48013A2E733F00043B3FA83F704BFD7
:10167000B2FA82FE77440B3FE41BB7F1200E2FBF76
:1016800002FA0EF3BB40C7F1200E22FA0EFE38BF5D
:1016900043EA0E03BA40641C82E750EA410E14BFCD
:1016A00052EA430E6FF000014FF4001717EB430F9F
:1016B0008ABF194617EB410FB5E74CEA05510020E8
:1016C000B0BDD4F10104B4F120070FDAC4F1200752
:1016D000520828BF42F0010210FA07F501FA07F795
:1016E000E1BF2A43E0403843E1400FE0352C98DC6D
:1016F000C7F1200452EA400220FA07F218BF42F074
:10170000010231FA07F0A1400A43002172F10042C0
:1017100050F1000051EB0C01B0BD000010B51446B3
:1017200000F002F8226010BDC1F30A5343B14A0031
:1017300012F5001F28D2A3F2FE32A1EB025170472E
:1017400050EA410C20D001F0004C31EA0C01B1FA12
:1017500081F204BFB0FA80F3D2180B3AB2F1200341
:101760002CBF00FA03F1914041EA0C013EBFC2F1E7
:10177000200C20FA0CF319439040524240F2FD3302
:10178000D21A01EB03517047002270474FF4001C3E
:101790001CEB410F94BF1CEB430F09E041EA030C23
:1017A00050EA4C0C52EA0C0C03D2994208BF90420A
:1017B000704714BF8B428242704700004FF4001CF8
:1017C0001CEB410F94BF1CEB430F09E041EA030CF3
:1017D00050EA4C0C52EA0C0C03D28B4208BF8242F6
:1017E000704714BF9942904270470000124254D48F
:1017F00040F2FF7C1CEA11530FD0634531D09B1897
:1018000063453CBF01EB0251704701F0004141EAE2
:101810000C510020AFF30080704750EA410320D004
:1018200001F0004C91EA0C011CD0B1FA81F30B3BA2
:101830009A420DD9D21A994051EA0C01C3F1200CF9
:1018400020FA0CFC61449840531C40F2FF7CD7E71F
:10185000914041EA0C01C2F1200C20FA0CF319432B
:1018600090407047B0FA80F31533202BE0D3202A44
:10187000EED3203A203B9A4209D9D21A00FA03F15A
:1018800041EA0C010020531C40F2FF7CB8E700FA4B
:1018900002F141EA0C0100207047524240F2FF7C05
:1018A0001CEA11530DD06345DBD0B2EB030C3CBFF7
:1018B000A1EB025170470CF1010221EA035141F4FE
:1018C000801150EA410CCCD001F0004C352A27DCC5
:1018D00030B481EA0C01B2F1200309DAC2F120032D
:1018E000044601FA03F5D0402843D1409C400CE067
:1018F000C3F12002450020FA03F418BF44F00104AC
:1019000021FA03F091400C43002174F1004550F19D
:10191000000051EB0C01244230BC7FF47BAF7047D8
:101920006146002076E70000C1F30A5340F2FE3220
:101930009B1A14DDD3F120034FEAE17208DDC902DE
:1019400041EA505141F00040D84080185040704763
:1019500003F2E13010B1D24382F000407047002022
:1019600070470000C11768B14840401AB0FA80F2D1
:101970009040D21CC907C2F5846241EA025202EBD0
:10198000D02140057047000070B44FF0004591EA47
:10199000030F40F1BD816B40841A71EB030603D243
:1019A000001BB141121973414FF4001C1CEB410F95
:1019B00034BF7CEB430442E00C0DA4EB1356352EF0
:1019C0004FDC45EAC323DB0A45EAC121C912B6F15F
:1019D00020050DDD63FA05F6EB4086EA03051242A9
:1019E00018BF45F00105C01851F100010CD213E0F9
:1019F00062FA06F5F2405540F3415A40B340F340D5
:101A00005A408018594107D349085FEA30005FEA1D
:101A1000350528BF45F0010501F58011420875F133
:101A2000004250F1000041EB04514E0016F5001F3A
:101A300070BC38BF70470020090D090570471CEBCA
:101A4000410F10D252EA43060BD0BCEB410F05D830
:101A50000C0DAB43661E342EB6DD02E0AB4380189E
:101A6000594170BC704770BC70470000F0B540F23F
:101A7000FF7581EA030C0CF0004C15EA11541DBFF0
:101A800015EA1357AC42AF42E5E0BC41C1F3130184
:101A9000C3F31303801A994143F4801304D2641EE4
:101AA0004000494180185941C90241EA5051B1FBF7
:101AB000F3F603FB1611A2FB0675D7EBC020A94174
:101AC00002D2761E80185941C90241EA5051B1FB39
:101AD000F3FE03FB1E11A2FB0E75D7EBC020A9413C
:101AE00003D2AEF1010E80185941890241EA9051AA
:101AF000760546EA8E2EB1FBF3F603FB1611A2FB28
:101B00000675D7EB8020A94102D2761E8018594174
:101B1000C90241EA50514EEA060EB1FBF3F603FB4F
:101B20001611A2FB0675D7EBC020A94102D2761E82
:101B300080185941C90241EA5051B1FBF3F703FB48
:101B40001711A2FB0735D3EBC020A94167F10007AD
:101B50000CBF004247F0010766F3D5274FEA1E315C
:101B6000B80814F5806412DDBD0775F1004250EB32
:101B70000E5051EB045111F5801F5CBF41EA0C017E
:101B8000F0BD4CF07F6141F0E0410020F0BDBD07A9
:101B90006D0840EA0E5041F48011D4F10104B4F113
:101BA00020060ADAC4F120060200E04001FA06F33A
:101BB000E1401843B24015430EE0342C13DCC6F16B
:101BC000200445EA40056D0820FA06F2154321FA83
:101BD00006F0A1400D43002175F1004250F10000D4
:101BE00051EB0C01F0BD00205FEA0C01F0BDCFB954
:101BF00092185B41B3FA83F704BFB2FA82F6BF19B9
:101C00000B3FB7F120062FBF02FA06F3BB40C7F126
:101C1000200622FA06F638BF3343BA401CB1E41955
:101C2000641E33E77F4231F00041B1FA81F404BF12
:101C3000B0FA80F6A4190B3CB4F120062FBF00FACD
:101C400006F1A140C4F1200620FA06F638BF314360
:101C5000A0403C1B1AE7AC421ABF05EA1357AF423B
:101C600012E050EA41061CBF52EA4306BFE750EAC1
:101C70004107304661461CBF41EA0551F0BD52EABA
:101C8000430C08BFC143F0BD00204FF4001616EB13
:101C9000410F98BF16EB430F08BF16EB410F24BF4F
:101CA000C14305E016EB430F0CBF61464CEA0551FA
:101CB000F0BD0000400D491840EA81200CD2490DCA
:101CC000A1F58061491C40F0004005DBD1F11F0106
:101CD00054BFC840C017704700207047014648B144
:101CE000B0FA80F18840C91CC1F58461090501EB97
:101CF000D02140057047012000F0C0B870470000B7
:101D000070B44FF0004591EA030F7FF545AE6B408C
:101D1000841A71EB030604D26E40001BB141121904
:101D200073414FF4001C1CEB410F34BF7CEB4306A6
:101D300083E00C0DA4EB1356362E00F37C80012EAD
:101D400045EAC32341DC43EA525312BFD202920256
:101D50005B08240545EAC12141EA5051D2EBC0207D
:101D6000994125D407D1B0FA80F610FA06F162D075
:101D70000020203608E0B1FA81F6B140C6F1200219
:101D800020FA02F21143B0404FEAF474B4EB465427
:101D900034F001064FEA74040AD8D6F50016760D21
:101DA00004F00044F04061FA06F25040F14048402F
:101DB000C00A40EA415021F0004128BF5FEA5005C7
:101DC00050F1000044EBD12135E0DB0A45EAC121A6
:101DD000C90AB6F120050EDD42EA0242120CC5F135
:101DE000200603FA06F6EB4042EA06056D429841EA
:101DF00061F100010DE062FA06F5F240554063FA28
:101E000006FC82EA0C02F3405A406D42904161EBBD
:101E1000030111F4801F05D1641E620502D06D001C
:101E20004041494121F48011430875F1004350F1CC
:101E3000000041EB045170BC70471CEB410F15D200
:101E400023F0004352EA43060BD04FEA4C0CBCEBA4
:101E5000410F04D80C0D661E342EB7DDEBE7801A57
:101E6000994150EA410608BF0021E4E708BF1CEB96
:101E7000430F28BF6FF00001DDE7000080B5AFF32E
:101E80000080024A11001820ABBEFBE726000200CA
:101E90000EB4002003B070474FF43F41B0F840202B
:101EA0001143A0F84010002070474FF43F41B0F8B4
:101EB000402032EA0101A0F84010002070470020C5
:101EC00070470EB400B50121A0F840100021A0F821
:101ED00040100021A0F844100021A0F85010FFF796
:101EE000DBFF00205DF810FBF0B400220B7830F827
:101EF000235048F68F131D40CB78002B05D0022BC2
:101F000006D009D3032B04D009E055F4007507E08F
:101F100006E055F4C06503E055F4806500E0012259
:101F200048F2800425430B7820F8235048F68F753B
:101F30000B7830F823602E400B781E4326430B7835
:101F400020F823600B7B002B40F098804B78002B0F
:101F500038D00600B0F850309E190B7816EB0316F7
:101F600016F58066CB889BB25B085B0033800B78EC
:101F700030F823305B060AD50B7830F823301D404B
:101F800045F4004555F0C0050B7820F82350CB7878
:101F9000012B0CD00B7830F8235048F6BF731D404E
:101FA00095F020052C43097820F8214024E10B7896
:101FB00030F8235048F6BF731D402C43097820F8B1
:101FC000214019E10600B0F850309E190B78DB0073
:101FD00016EB430616F58166CB889BB25B085B0067
:101FE00033800600B0F850309E190B78DB0016EBFA
:101FF000430606F20C460B69002B09D1378848F2DC
:10200000FF331F403780338853F40043338016E09A
:102010000B693F2B08D20B695B080F7CFF0700D5CB
:102020005B1C9B0233800AE00B695B090F7C17F095
:102030001F0F00D15B1E9B0253F4004333800B78CB
:1020400030F823305B040AD50B7830F823301D407C
:1020500045F4404555F080050B7820F823500B7867
:1020600030F823504BF68F731D4095F4805595F44E
:1020700000552C43097820F82140BDE00B7830F85A
:1020800023302B4043F4014353F080030E7820F8B3
:1020900026300600B0F850309E190B7816EB031668
:1020A00016F580660B899BB25B085B0033800600E7
:1020B000B0F850309E190B78DB0016EB430616F58E
:1020C00081664B899BB25B085B0033804B78002BA9
:1020D00043D10B7830F823305B040AD50B7830F805
:1020E00023302B4043F4404353F080030E7820F814
:1020F00026300B7830F823305B060AD50B7830F8A1
:1021000023302B4043F4004353F0C0030E7820F8F3
:1021100026300B7830F823301D4045F4004555F04B
:10212000C0050B7820F823500B7830F823504BF67D
:102130008F731D4095F4805595F4005525430B7819
:1021400020F823500B7830F8235048F6BF731D4019
:102150002C43097820F821404EE00B7830F82330EA
:102160005B040AD50B7830F823302B4043F440430E
:1021700053F080030E7820F826300B7830F82330A7
:102180005B060AD50B7830F823302B4043F400432C
:1021900053F0C0030E7820F826300B7830F8233047
:1021A0001D4045F4404555F080050B7820F823503C
:1021B000CB78012B0CD00B7830F8235048F6BF7346
:1021C0001D4095F0200525430B7820F8235009E0A9
:1021D0000B7830F8235048F6BF731D4025430B7829
:1021E00020F823500B7830F823504BF68F731D40A6
:1021F0002C43097820F821401000C0B2F0BC704791
:1022000010B40A7B002A42D14A78002A1FD00A78EB
:1022100030F8222052060CD50A7830F8223048F6E1
:102220008F72134043F4004353F0C0030A7820F840
:1022300022300A7830F8223048F6BF72134043F457
:10224000004353F08003097820F82130B1E00A7888
:1022500030F8222052040CD50A7830F8223048F6A3
:102260008F72134043F4404353F080030A7820F800
:1022700022300A7830F822304BF68F72134043F444
:10228000004353F08003097820F8213091E04A7828
:10229000002A47D10A7830F8222052040CD50A7857
:1022A00030F8223048F68F72134043F4404353F025
:1022B00080030A7820F822300A7830F8222052066B
:1022C0000CD50A7830F8223048F68F72134043F468
:1022D000004353F0C0030A7820F822300A7830F81F
:1022E000223048F68F72134043F4004353F0C0038A
:1022F0000A7820F822300A7830F822404BF68F72A4
:10230000144048F280031C430A7820F822400A78DF
:1023100030F8224048F6BF7214402343097820F871
:10232000213046E00A7830F8222052040CD50A7891
:1023300030F8223048F68F72134043F4404353F094
:1023400080030A7820F822300A7830F822205206DA
:102350000CD50A7830F8223048F68F72134043F4D7
:10236000004353F0C0030A7820F822300A7830F88E
:10237000223048F68F72134043F4404353F08003F9
:102380000A7820F822300A7830F8224048F6BF72E6
:10239000144048F280031C430A7820F822400A784F
:1023A00030F822404BF68F7214402343097820F80E
:1023B0002130002010BC704770B505000E00707809
:1023C000012840F0DC803069B169884204D2346968
:1023D000B069001BB06102E0B4690020B061307BDD
:1023E000002812D123009BB2F2887169280000F006
:1023F00010FA2900B5F8500041183078C00011EBF0
:10240000400101F204410C80A7E0307835F820004B
:1024100040063DD52900707800282AD12900B5F85A
:10242000500041183078C00011EB400101F20C411E
:10243000002C09D10A8848F2FF3002400A8008883F
:1024400050F40040088013E03F2C07D220004008E1
:10245000E20700D5401C8002088009E02000400906
:1024600014F01F0F00D1401E800250F4004008807D
:102470000CE07078012809D1B5F850004118307887
:10248000C00011EB400101F20C410C8072893CE06C
:10249000707800282AD12900B5F85000411830780A
:1024A000C00011EB400101F20441002C09D10A885F
:1024B00048F2FF3002400A80088850F4004008804B
:1024C00013E03F2C07D220004008E20700D5401C53
:1024D0008002088009E02000400914F01F0F00D19D
:1024E000401E800250F4004008800DE07078012802
:1024F0000AD12900B5F8500041183078C00011EB1E
:10250000400101F204410C80328923009BB292B257
:102510007169280000F07DF9707800280DD13078BD
:1025200035F8201048F68F70014041F4004151F019
:10253000C001307825F820100FE0707801280CD108
:10254000307835F8201048F68F70014041F4404152
:1025500051F08001307825F82010307835F82010BF
:1025600048F6BF70014091F0100191F0200141F454
:10257000004151F08001307825F82010C2E0306928
:10258000B169884204D23069B169091AB16102E0C7
:10259000B0690021B161317B00292AD12A00B5F848
:1025A00050108A183178C90012EB410202F20C4235
:1025B000002809D1118848F2FF30014011801088AD
:1025C00050F40040108013E03F2807D20100490872
:1025D000C00700D5491C8802108009E001004909A4
:1025E00010F01F0F00D1491E880250F400401080E7
:1025F00077E0717800292AD12A00B5F850108A189E
:102600003178C90012EB410202F20442002809D1DC
:10261000138848F2FF310B401380118851F40041B8
:10262000118013E03F2807D201004908C30700D5F5
:10263000491C8902118009E00100490910F01F0FAF
:1026400000D1491E890251F4004111800DE07178DA
:1026500001290AD12A00B5F850108A183178C9002A
:1026600012EB410202F2044210802A007178002924
:102670002AD12A00B5F850108A183178C90012EB17
:10268000410202F20C42002809D1118848F2FF30C1
:1026900001401180108850F40040108013E03F2862
:1026A00007D201004908C00700D5491C88021080E4
:1026B00009E00100490910F01F0F00D1491E8802EE
:1026C00050F4004010800CE07178012909D1B5F870
:1026D00050108A183178C90012EB410202F20C4204
:1026E0001080307835F820104BF68F70014091F44F
:1026F000805191F4005141F4004151F08001307853
:1027000025F82010002070BD4A78002A0FD00A78E2
:1027100030F8223048F6BF72134093F0100343F4B0
:10272000004353F08003097820F821300EE00A7846
:1027300030F822304BF68F72134093F4805343F4F9
:10274000004353F08003097820F8213000207047BF
:102750000A7B002A4AD14A78002A24D00A7830F825
:10276000222052060CD50A7830F8223048F68F72B3
:10277000134043F4004353F0C0030A7820F822309A
:10278000CA78012A32D00A7830F8223048F6BF726F
:10279000134093F0200343F4004353F0800309787F
:1027A00020F8213022E00A7830F8222052040CD59B
:1027B0000A7830F8223048F68F72134043F44043D1
:1027C00053F080030A7820F822300A7830F822305B
:1027D0004BF68F72134093F4805393F4005343F4F9
:1027E000004353F08003097820F82130002070471F
:1027F000C9B2002902D18021A0F84C1000207047F6
:102800000020704700207047B0F844007047002057
:10281000704710B49BB25B1C5B0892B210EB420095
:1028200010F580600AE00A78491C0C782402A4B2F2
:1028300022430280801C801C491C5B1E002BF2D1AD
:1028400010BC704710B41C00A4B2640892B210EB24
:10285000420010F5806008E00288801C0A70491C64
:10286000120A0A70491C801C641E002CF4D1DA077D
:1028700001D50088087010BC704718B585B00400F9
:10288000002C01D10120A5E094F82902002805D1EF
:10289000002084F82802200000F06EFC032084F859
:1028A00029022068FFF701FB211D83B06846202222
:1028B000FEF706FD0EBC2068FFF7EAFA002804D0F8
:1028C000022084F82902012084E000212068FFF71B
:1028D000F6FA00202DE001210200D2B2520122447A
:1028E00082F829100100C9B24901214481F8280069
:1028F0000100C9B20200D2B252012244D1860021A5
:102900000200D2B25201224482F82B1000210200B0
:10291000D2B252012244916300210200D2B252018C
:102920002244D16300210200D2B252012244116438
:10293000401C0100C9B262689142CCD3002029E05A
:1029400000210200D2B25201224482F82911010072
:10295000C9B24901214481F8280100210200D2B204
:102960005201224482F82B1100210200D2B25201FE
:102970002244C2F8381100210200D2B2520122448E
:10298000C2F83C1100210200D2B252012244C2F826
:102990004011401C0100C9B262689142D0D3211D90
:1029A00083B068462022FEF78BFC0EBC2068FFF740
:1029B00088FA002804D0022084F82902012009E0C6
:1029C000002084F82400012084F829022068FFF701
:1029D00019FF002006B010BD10B5040094F82802BD
:1029E000012801D1022010E0012084F828020121F1
:1029F000200000F002FD2068FFF702FF2068FFF7CB
:102A00004BFA002084F82802002010BD10B5040005
:102A10002068FFF7F9FE000402D5200000F0E7F976
:102A20002068FFF7F1FE40050FD52068B0F844108C
:102A30004FF6FF3001402068A0F84410200000F05D
:102A4000DAFB0021200000F08EF82068FFF7DCFEA2
:102A5000400408D52068B0F844104BF6FF700140E0
:102A60002068A0F844102068FFF7CEFE800408D547
:102A70002068B0F844104DF6FF7001402068A0F8BF
:102A800044102068FFF7C0FEC0041DD52068B0F8D0
:102A900040104FF6FB7001402068A0F840102068FD
:102AA000B0F840104FF6F77001402068A0F84010D1
:102AB000200000F0C2FB2068B0F844104EF6FF7012
:102AC00001402068A0F844102068FFF79DFE000533
:102AD00029D52068B0F8400050F008002168A1F81E
:102AE00040002068B0F844104FF2FF7001402068A9
:102AF000A0F844102068B0F8400050F004002168AD
:102B0000A1F840002068FFF77FFEC00408D52068C8
:102B1000B0F844104EF6FF7001402068A0F8441051
:102B2000200000F07BFB2068FFF76EFE80050BD5D0
:102B30002068B0F844104FF6FF5001402068A0F81C
:102B40004410200000F051FB2068FFF75DFEC00537
:102B500008D52068B0F844104FF6FF6001402068A7
:102B6000A0F8441010BD10B5040094F82802012804
:102B700001D102200CE0012084F8280284F82410FE
:102B8000C9B22068FFF734FE002084F82802002034
:102B900010BD70B5050000260800C0B200060AD5B9
:102BA0000800C0B210F007004001284410F12804CA
:102BB0000120607009E00800C0B210F00700400179
:102BC000284410F594740020607011F00701217002
:102BD00092B22261E3706078002801D02078E08111
:102BE000DBB2022B01D10020207195F828020128C8
:102BF00001D102200BE0012085F82802210028687D
:102C0000FFF772F9002085F828023000C0B270BDCD
:102C100010B504000800C0B2000609D50800C0B213
:102C200010F007004001204428300122427009E0E2
:102C30000800C0B210F007004001204410F5947065
:102C40000022427011F00701017094F82812012946
:102C500001D102200AE0012184F828120100206835
:102C6000FFF7CEFA002084F82802002010BD10B52E
:102C70000C002100C9B211F007014901014411F50E
:102C800094714A618B610022CA6100224A7014F07B
:102C900007020A7014F0070F03D10068FFF78CFBDE
:102CA00002E00068FFF788FB002010BDC9B211F0F8
:102CB000070149010844D0F84401704710B50C00E1
:102CC0002100C9B211F007014901014428314A61CC
:102CD0008B610022CA6101224A7014F007020A7057
:102CE00014F0070F03D10068FFF766FB02E00068ED
:102CF000FFF762FB002010BD38B504000D006068CE
:102D00002900C9B211F00701884201D2012033E045
:102D10002800C0B200060AD52800C0B210F0070093
:102D20004001204410F128010120487007E02800EC
:102D3000C0B24001204410F5947100204870012079
:102D4000887015F00700087094F82802012801D156
:102D5000022011E0012084F828022068FFF7D4FC4B
:102D600015F0070F04D114F50C712068FFF74FFD23
:102D7000002084F82802002032BD10B504006068ED
:102D80000A00D2B212F00F02904201D201202DE0CF
:102D90000800C0B2000609D50800C0B210F0070054
:102DA0004001204428300122427009E00800C0B2EE
:102DB00010F007004001204410F59470002242708A
:102DC0000022827011F00701017094F82812012985
:102DD00001D102200AE0012184F8281201002068B4
:102DE000FFF7B6FC002084F82802002010BD2DE972
:102DF000F041040033E02068018848F60F7001407C
:102E000051F400412068018014F128052068B0F8D1
:102E10005000297810EBC100216811EB400101F24C
:102E20000441088880B28005800DE8616869E9691D
:102E3000084468610021200000F0CBF994F82400D8
:102E400000280CD0A869002809D194F8240050F07B
:102E500080002168A1F84C00002084F8240020683C
:102E6000B0F84400000440F184812068B0F84400C8
:102E700010F00F052900C9B2002940F09880C00663
:102E8000B9D514F5947520680088010524D520680B
:102E9000B0F85000297810EBC100216811EB400117
:102EA00001F20C41088880B28005800DE861EB6971
:102EB0009BB2EA8814F50C712068FFF7C3FC206808
:102EC000018840F68F70014051F080012068018038
:102ED000200000F069F9C2E70004C0D5206801882D
:102EE00040F68F70014051F0800120680180206819
:102EF000B0F85000297810EBC100216811EB4001B7
:102F000001F20C41088880B28005800DE861E86913
:102F1000002811D0686900280ED0EB699BB2EA88BE
:102F200069692068FFF78EFC6869E969084468618F
:102F30000021200000F040F921682068B0F850001E
:102F4000411801F20C412869002809D10A8848F289
:102F5000FF3002400A80088850F40040088016E0E4
:102F600028693F2808D2286940082A7CD20700D562
:102F7000401C800208800AE0286940092A7C12F07F
:102F80001F0F00D1401E800250F4004008802068CE
:102F900001884BF68F70014091F4805191F40051FB
:102FA00041F4004151F080012068018057E720681A
:102FB0002900C9B230F82160300440F1A0802068B7
:102FC0002900C9B230F8211040F68F70014051F04D
:102FD000800120682A00D2B220F822102800C0B256
:102FE0004001204410F59477387B00281CD12068DC
:102FF000B0F85000397810EBC100216811EB4001A6
:1030000001F20C41B1F800805FEA88585FEA9858F5
:10301000404680B2002855D043469BB2FA88796971
:103020002068FFF70FFC4DE02068397830F8210068
:1030300040041CD52068B0F85000397810EBC1006E
:10304000216811EB400101F20441B1F800805FEA10
:1030500088585FEA9858404680B2002823D04346FB
:103060009BB23A8979692068FFF7ECFB1BE0206886
:10307000B0F85000397810EBC100216811EB400125
:1030800001F20C41B1F800805FEA88585FEA985875
:10309000404680B2002806D043469BB27A897969BF
:1030A0002068FFF7CFFB2068397830F8211048F608
:1030B0008F70014041F4004151F0C00120683A781E
:1030C00020F82210F969404680B24118F961786908
:1030D000414689B208447861B869002804D01FFAD3
:1030E00088F83869804504D23978200000F064F807
:1030F00005E0BB697A6939782000FFF7B8FD300632
:103100007FF5ADAE2800C0B24001204410F1280187
:1031100020682A00D2B230F8222048F60F70024010
:1031200052F400422068EDB220F825202068B0F863
:1031300050000A7810EBC200226812EB400202F243
:103140000442108880B28005800DC8614869CA6950
:10315000104448618869002804D10978200000F0F3
:1031600038F87CE68B694A6909782000FFF7A6FDEC
:1031700075E60020BDE8F08180B500689949884275
:1031800011D19948016851F400010160006810F400
:1031900000000090009800220021142000F0AFF9F8
:1031A000142000F0BDF901BD80B510F50C71D0F808
:1031B000680200F023FA01BD80B50A00D2B25201C4
:1031C0000244D2F83C21C9B2D0F8680200F048FAB3
:1031D00001BD80B50A00D2B252010244D26BC9B21D
:1031E000D0F8680200F08FFA01BD80B5D0F868020F
:1031F00000F051FB01BD38B504000125A06802288C
:1032000001D000F099FC2900C9B2D4F8680200F09E
:103210002CFBD4F8680200F0F8FA31BD10B50400B8
:10322000D4F8680200F024FBA069002804D06F489D
:10323000016851F00601016010BD80B5D0F8680248
:1032400000F01FFB01BD10B504006948C0F86842DA
:10325000C4F8C00263490160082141600221816015
:10326000002181610021C16100210162FFF705FB9E
:10327000002801D000F060FC182300220021D4F8BF
:10328000C00200F05AFC582300228021D4F8C0026A
:1032900000F053FCC02300228121D4F8C00200F0CA
:1032A0004CFC4FF4887300220121D4F8C00200F0D6
:1032B00044FC4FF4807300228221D4F8C00200F055
:1032C0003CFC002010BD80B500210021D0F8C002D8
:1032D000FFF782FBC0B200F091F8C0B202BD10B59A
:1032E0001C00002300231300DBB2220092B2C9B2FB
:1032F000D0F8C002FFF74DFCC0B200F07FF8C0B2BA
:1033000010BD80B500220022C9B2D0F8C002FFF77C
:103310007FFCC0B200F072F8C0B202BD80B50022DE
:103320000022C9B2D0F8C002FFF7E6FCC0B200F03C
:1033300065F8C0B202BD80B500220022C9B2D0F843
:10334000C002FFF71AFDC0B200F058F8C0B202BDCB
:10335000D0F8C0020A00D2B2120607D5C9B211F0E5
:103360007F014901084490F82A0006E0C9B211F033
:103370007F014901084490F82A01704780B5002276
:103380000022C9B2D0F8C002FFF7EDFBC0B200F0D6
:1033900035F8C0B202BD10B5002400249BB2C9B2FA
:1033A000D0F8C002FFF78AFCC0B200F027F8C0B224
:1033B00010BD10B5002400249BB2C9B2D0F8C002E1
:1033C000FFF755FCC0B200F019F8C0B210BD80B5CF
:1033D000C9B2D0F8C002FFF769FC02BD05487047CA
:1033E00000000000005C00401C10024010ED00E0F6
:1033F000A40C0020100F0020704770470021C0B2BD
:10340000002805D0022807D004D3032806D007E0FF
:10341000002006E0022004E0012002E0022000E09B
:103420000220C0B27047000010F00700484B1A6835
:103430004FF6FF010A40474951EA00210A431A604A
:10344000704743480068C0F302207047010049B24A
:10345000002908D4012210F01F018A403E4940B2E1
:10346000400941F820207047020052B2002A04D4DB
:1034700009013A4A40B2115407E00901384A40B202
:1034800010F00F00104400F8041C704710B410F046
:103490000700D0F10703052B01D3042301E0D0F18D
:1034A0000703041D072C01D2002000E0C01E0124E8
:1034B00014FA03F35B1E1940814014FA00F0401E19
:1034C0001040084310BC704780B5411EB1F1807FA9
:1034D00001D301200EE0401E224908600F215FF059
:1034E000FF30FFF7C1FF00201F49086007201F4978
:1034F0000860002002BD80B5FFF796FF01BD70B5E2
:1035000004000D0016000020FFF79BFF3200290089
:10351000FFF7BCFF0100200040B2FFF7A5FF70BD20
:1035200080B540B2FFF792FF01BD80B5FFF7CCFF39
:1035300002BD042805D10D48016851F00401016065
:1035400004E00A48016831F004010160704700009E
:103550000CED00E00000FA0500E100E000E400E00E
:1035600018ED00E014E000E018E000E010E000E0FA
:1035700080B500F003FB01BD80B5002801D1022019
:1035800011E0D0F8B432002B02D00023C0F8B432DE
:10359000002901D0C0F8B012012180F89C120270FD
:1035A000FFF751FE002002BD0022002903D0C0F821
:1035B000B412002000E00220C0B2704780B5FFF7CF
:1035C00082FE002002BD0020704710B50224D0F812
:1035D000B422002A07D0C9B2D0F8B42212689047AA
:1035E000002800D100242000C0B210BD80B5C9B2AF
:1035F000D0F8B42252689047002002BD10B50400F4
:1036000014F52A7000F04AFE0120C4F89402B4F8C0
:10361000AE02C4F8980294F8A80210F01F00002827
:1036200003D002280DD006D311E014F52A71200032
:1036300000F0A8FA12E014F52A71200000F0DFFA79
:103640000CE014F52A71200000F00FFB06E094F85E
:10365000A81211F080012000FFF760FE002010BDCD
:1036600010B5040010000A00D2B2002A39D114F5B6
:10367000AA72D4F89412032927D11169D368994208
:1036800011D2D36811695B1AD360D168136999426A
:1036900001D2D26800E0126992B20100200000F06D
:1036A0007CFE002010BDD4F8B4020069002808D0C8
:1036B00094F89C02032804D12000D4F8B4120969BC
:1036C0008847200000F072FEEBE7D4F8940205284A
:1036D000E7D10020C4F8940200212000FFF71EFE6D
:1036E000DFE7D4F8B402806900280AD094F89C027D
:1036F000032806D1C9B22000D4F8B42292699047B9
:10370000CFE70220CEE710B5040010000A00D2B2C5
:10371000002A68D114F11402D4F8941202294AD173
:103720001169D368994210D2D36811695B1AD360CA
:10373000D26892B20100200000F012FE00230022A5
:1037400000212000FFF735FE41E090681169B0FBD1
:10375000F1F301FB1300002817D19068116988422A
:1037600013D39068D4F8981288420ED20022002118
:10377000200000F0F5FD0020C4F89802002300228C
:1037800000212000FFF715FE21E0D4F8B402C06844
:10379000002808D094F89C02032804D12000D4F813
:1037A000B412C968884780212000FFF7B7FD2000C8
:1037B00000F007FE0BE0D4F89402042803D0D4F8FC
:1037C0009402002803D180212000FFF7A7FD94F880
:1037D000A002012805D12000FFF7F5FE002084F8A3
:1037E000A002002010BDD4F8B402406900280AD01D
:1037F00094F89C02032806D1C9B22000D4F8B42260
:1038000052699047EDE70220ECE710B50400402331
:10381000002200212000FFF762FD0120C4F85801BA
:103820004020C4F864014023002280212000FFF7DB
:1038300056FD0120A06140206062012084F89C02B6
:103840000020C4F89402002060600020C4F8A402A4
:10385000D4F8B802002806D06168C9B22000D4F8B4
:10386000B42252689047002010BD017400207047B8
:1038700090F89C1280F89D12042180F89C12002080
:10388000704790F89C12042903D190F89D1280F89B
:103890009C120020704780B590F89C12032908D133
:1038A000D0F8B412C969002903D0D0F8B412C9699C
:1038B0008847002002BD000080B500F08DFD00F0BB
:1038C00009F800F072F800F04DF800F097FD00F0F4
:1038D000C1FDFCE700B593B0012009905FF4803092
:1038E0000A9000210B9101210D910221109111905C
:1038F0005FF4E010129009A801F0D0F8002801D080
:1039000000F01AF90F200490022005900020069084
:103910004FF48060079000200890022104A801F075
:10392000A6FA002801D000F007F91020009000202E
:103930000390684601F0A6FB002801D000F0FCF8D7
:1039400001F069FB7449B0FBF1F0FFF7EEFD0420D4
:10395000FFF7EFFD002200215FF0FF30FFF7CFFD02
:1039600013B000BD80B56D486D4901604FF48271A0
:103970004160002181600021C160002101610021BE
:1039800041614FF4007181611021C1610021016228
:1039900000214162002181620A21C16201F0F4FB31
:1039A000002801D000F0C8F801BD78B585B05D48A9
:1039B000016851F010010160016811F010010491DB
:1039C0000499016851F020010160016811F02001A3
:1039D00004910499016851F004010160016811F03B
:1039E000040104910499016851F008010160006824
:1039F00010F00800049004984B4E00224FF4005140
:103A0000300002F016F8494C00221E21200002F07E
:103A100010F8474D00224FF40071280002F009F819
:103A200000224FF48071280002F003F80022802168
:103A3000280001F0FEFF00224021280001F0F9FFDC
:103A400000220421200001F0F4FF4FF40050009008
:103A500001200190022003906946300001F008FF28
:103A60001E20009001200190022003906946200052
:103A700001F0FEFE4FF40070009001200190022042
:103A800003906946280001F0F3FE4FF48070009027
:103A900001200190022003906946280001F0E8FE11
:103AA00080200090012001900220039069462800A8
:103AB00001F0DEFE402000900120019002200390E2
:103AC0006946280001F0D4FE0420009001200190F6
:103AD000022003906946200001F0CAFE20200090D9
:103AE00000200190002002906946280001F0C0FEED
:103AF000022000900F4801900220029069462800A1
:103B000001F0B6FE002200210720FFF7F8FC072095
:103B1000FFF706FD06B070BDA0860100B0130020BF
:103B20000030014018100240001001400008014020
:103B3000000C014000001110FEE710B40C00A4B20C
:103B4000240606D589B211F007014901084428303E
:103B500004E089B24901084410F5947092B2002A39
:103B600003D100210173C38004E0012101730381AB
:103B70001B0C4381002010BC7047000080B501F091
:103B8000DCFF01BD10B500240A7812F06002002AA3
:103B900008D0202A01D0402A2CD1D0F8B422926833
:103BA000904729E04A78002A18D0012A1CD0032A1D
:103BB00017D0052A09D0062A04D0082A0BD0092AD2
:103BC00006D014E000F077F913E000F074FA10E08A
:103BD00000F0A0FA0DE000F007FB0AE000F023FB84
:103BE00007E000F03FFB04E000F046FB01E000F0DE
:103BF00069FB01E000F066FB2000C0B210BD38B5E3
:103C000004000D000020287810F06000002803D088
:103C1000202801D0402822D194F89C02401E02287E
:103C200018D82879022810DA29002000D4F8B42204
:103C3000926890470100E88800280AD1C9B200299B
:103C400007D1200000F0B2FB03E02900200000F0C3
:103C500039FB03E02900200000F034FB03E02900D9
:103C6000200000F02FFB002032BD70B505000024BD
:103C700088880A7812F06002002A0AD0202A02D02E
:103C8000402A40F012812800D5F8B422926890476B
:103C90000EE10A7812F06002202A06D12800D5F839
:103CA000B42292689047C0B204E14A78002A6CD0EE
:103CB000012A3AD0032A40F0F48095F89C22022A87
:103CC00002D0032A16D02CE00200D2B2002A0DD076
:103CD0000200D2B2802A09D00100C9B22800FFF741
:103CE0001DFB80212800FFF719FB02E0280000F0EF
:103CF000E9FA19E04A88002A0FD10200D2B2002A5C
:103D00000BD00200D2B2802A07D0C988002904D182
:103D10000100C9B22800FFF701FB280000F046FBB4
:103D200002E0280000F0CEFABEE095F89C22022ABC
:103D300002D0032A16D024E00200D2B2002A0DD00D
:103D40000200D2B2802A09D00100C9B22800FFF7D0
:103D5000E5FA80212800FFF7E1FA02E0280000F0F0
:103D6000B1FA11E0498800290AD110F07F0F04D080
:103D70000100C9B22800FFF7DEFA280000F016FBA8
:103D800002E0280000F09EFA8EE095F89C22022ABC
:103D900002D0032A28D080E00200D2B2002A07D045
:103DA0000200D2B2802A03D0280000F08BFA77E01C
:103DB0000100C9B2090608D5C0B210F07F00142175
:103DC0004843284410F1140107E0C0B210F07F000E
:103DD00014214843284410F5AA71002008600222EB
:103DE000280000F0ABFA5BE00200D2B212060ED55A
:103DF0000300DBB213F00F031422534305EB03025D
:103E00009269002A13D1280000F05CFA48E0030010
:103E1000DBB213F00F031422534305EB0302D2F875
:103E20005821002A03D1280000F04CFA38E00100A4
:103E3000C9B209060AD50200D2B212F07F021421DB
:103E40004A4305EB020111F1140609E00200D2B267
:103E500012F07F0214214A4305EB020111F5AA7604
:103E60000100C9B2002903D00100C9B2802902D1E2
:103E7000002030600BE00100C9B22800FFF768FAAB
:103E8000002802D00120306001E0002030600222D2
:103E90003100280000F052FA02E0280000F012FA87
:103EA00002E0280000F00EFA02E0280000F00AFA12
:103EB0002000C0B270BDF8B505000E000020ADF8BE
:103EC000000000270024708880B2000AC0B20128D8
:103ED0000AD0022810D0032823D0062800F0A5809D
:103EE000072800F0B280C2E06946287CD5F8B022ED
:103EF000126890470700BFE0287C002808D1684678
:103F0000D5F8B412896A884707000220787007E064
:103F10006846D5F8B412C96A88470700022078704D
:103F2000AAE0B078002808D002282CD018D30428A2
:103F30004FD03BD305285FD071E0D5F8B002406880
:103F4000002807D06946287CD5F8B02252689047EF
:103F5000070004E03100280000F0B4F9641C63E0BD
:103F6000D5F8B0028068002807D06946287CD5F8CB
:103F7000B02292689047070004E03100280000F06A
:103F8000A1F9641C50E0D5F8B002C068002807D041
:103F90006946287CD5F8B022D2689047070004E033
:103FA0003100280000F08EF9641C3DE0D5F8B00225
:103FB0000069002807D06946287CD5F8B02212692C
:103FC0009047070004E03100280000F07BF9641CF2
:103FD0002AE0D5F8B0024069002807D06946287C5D
:103FE000D5F8B02252699047070004E0310028005C
:103FF00000F068F9641C17E0D5F8B0028069002869
:1040000007D06946287CD5F8B0229269904707000E
:1040100004E03100280000F055F9641C04E0310090
:10402000280000F04FF9641C26E0287C002806D107
:104030006846D5F8B412496B8847070004E03100A0
:10404000280000F03FF9641C16E0287C002808D105
:104050006846D5F8B412096B8847070007207870C6
:1040600004E03100280000F02DF9641C04E0310068
:10407000280000F027F9641CE4B2002C1AD1BDF826
:104080000000002810D0F08800280DD0BDF80000F6
:10409000F188884202D3F088ADF80000BDF8002016
:1040A0003900280000F04AF9F088002802D12800E1
:1040B00000F07CF9F1BD38B505008888002825D1CD
:1040C000C888002822D1488880281FD28C7814F014
:1040D0007F0495F89C02032803D1280000F0F2F831
:1040E00017E085F89E422100C9B22800FFF746F983
:1040F000280000F05BF9E4B2002C03D0022085F820
:104100009C0206E0012085F89C0202E0280000F0F5
:10411000D9F831BD70B504000D00324E688830709A
:104120003078022804DB2900200000F0CBF857E0AB
:1041300094F89C02022802D003281BD048E0307873
:10414000002813D030786060032084F89C02317816
:104150002000FFF73AFA022804D12900200000F0DD
:10416000B1F83DE0200000F021F902E0200000F06D
:104170001DF935E0307800280CD1022084F89C022B
:104180003078606031782000FFF730FA200000F0CE
:104190000DF91CE030786168884215D06168C9B2B9
:1041A0002000FFF723FA3078606031782000FFF7B5
:1041B0000CFA022804D12900200000F083F80FE057
:1041C000200000F0F3F802E0200000F0EFF807E034
:1041D0002900200000F076F831782000FFF706FA79
:1041E00070BD00008014002080B5CA88012A02D06A
:1041F00000F068F816E090F89C22521E012A02D9BD
:10420000921E08D00CE000218160012210F108010B
:1042100000F094F806E00122011D00F08FF801E0A3
:1042200000F050F801BD80B590F89C22521E022A81
:1042300015D8CA88022A02D000F044F811E0012102
:10424000C160D0F8A412002903D0C16851F0020166
:10425000C160022210F10C0100F070F801E000F0E2
:1042600031F801BD80B54988012904D10121C0F888
:10427000A41200F09BF801BD80B590F89C22521E5C
:10428000022A08D84988012904D10021C0F8A412C3
:1042900000F08CF801E000F015F801BD0A7802701A
:1042A0004A7842708A78CB7812EB032242800A79EE
:1042B0004B7912EB032282808A79C97912EB0122B1
:1042C000C280704710B5040080212000FFF726F857
:1042D00000212000FFF722F810BDF8B504000D0002
:1042E00017000026002C1ED0200000F01DF8400012
:1042F000801C388038783100C9B26854761C03209D
:104300003100C9B26854761C0AE020783100C9B285
:104310006854641C761C00203100C9B26854761CB5
:1043200020780028F1D1F1BD0200002001E0401CFE
:10433000521C11780029FAD1C0B2704780B5130021
:104340000222C0F894221A0092B2C2611A0092B2FC
:1043500002629BB20A000021FFF71DF8002002BD97
:1043600080B513009BB20A000021FFF714F800206B
:1043700002BD80B513000322C0F894221A0092B245
:10438000C0F85C211A0092B2C0F860219BB20A000A
:104390000021FFF70EF8002002BD80B513009BB28C
:1043A0000A000021FFF705F8002002BD80B50421B6
:1043B000C0F89412002300220021FEF7ECFF002039
:1043C00002BD80B50521C0F894120023002200210F
:1043D000FEF7EFFF002002BD80B50748016851F0ED
:1043E000100101600320FFF786F8002001F012FCA5
:1043F00001F036FC002002BD0020024010B5114C37
:10440000002211492000FFF7B7F8002801D0FFF77C
:1044100093FB0E492000FFF7C7F8002801D0FFF7F3
:104420008BFB0B49200001F001FE002801D0FFF7B3
:1044300083FB2000FFF7C2F8002801D0FFF77CFBC8
:1044400010BD00BFE00900203C0100202800002032
:104450002C0100202DE9F84F94B000200020DFF857
:10446000BC1508800020DFF8B8150870DFF8B445E7
:10447000002020700120DFF8B01508700020DFF860
:10448000AC1508700020DFF8A81508700020DFF8D0
:10449000A41508700920DFF8A01508700020DFF8C7
:1044A0009C15087001F016FE00200BE00022DFF8DA
:1044B0009035032505FB00F52B445A54491C03296C
:1044C000F4D3401C032801D20021F8E7002000208B
:1044D00001F080FF01F021FEDFF86855B1A62E60E3
:1044E00003202070DFF860750020387022E0DFF8CC
:1044F0005C85DFF85C0590F900302A68DFF8541518
:10450000404601F0F5FF4246DFF84C150FA801F0D8
:10451000EFFF0FA8FCF764FE01000FA802F041F8BE
:1045200001F001FF1421404601F02CFF01F0F5FDE0
:10453000012020702078002808D0012837D00328D7
:1045400000F0AE80042800F02F81F3E7DFF80C05BF
:1045500000780128CBD1286802F0E0F8DFF80015D8
:10456000484302F0E1F8DFF8E484DFF8E40490F96E
:1045700000302A68DFF8DC14404601F0B9FF4246FB
:10458000DFF8D4140AA801F0B3FF0AA8FCF728FE4C
:1045900001000AA802F005F801F0C5FE142140460A
:1045A00001F0F0FE01F0B9FD01202070C2E7012109
:1045B000286801F01EFE012871D15FF01408DFF8B1
:1045C000A494DFF8A4A40122296899F8000008FB4C
:1045D00000F0504402F0BCF800282AD101F0D4FDCC
:1045E000DFF86C140870DFF884B499F8000008FB59
:1045F00000F00AEB0002DFF87814584601F078FF6B
:1046000099F80000401C89F8000099F80000032880
:1046100002D1002089F800005846FCF7E1FD0100B6
:10462000584601F0BEFF002020700020DFF82C1457
:1046300008700122C2A199F8000008FB00F0504464
:1046400002F086F800282AD101F09EFDDFF8001460
:104650000870DFF818B499F8000008FB00F80AEBBE
:104660000802DFF80C14584601F042FF99F80000E8
:10467000401C89F8000099F80000032802D10020AE
:1046800089F800005846FCF7ABFD0100584601F0E0
:1046900088FF002020700120DFF8C013087049E770
:1046A000DFF8D0834021404601F0BAF9012824D137
:1046B0004CF2503002F038F8DFF89093DFF8B8137E
:1046C000484601F015FF4A46DFF88C1305A801F0B3
:1046D0000FFF05A8FCF784FD010005A801F061FFAC
:1046E00001F021FE1421484601F04CFE01F015FDB9
:1046F000042020700120D94908708021404601F033
:104700008FF901280DD04FF48071404601F088F9EF
:10471000012806D04FF40071404601F081F90128CC
:104720003FD18021404601F07BF9012805D1B8A096
:1047300028600020C94908700BE04FF480714046A2
:1047400001F06EF9012804D1B2A028600020C3490D
:1047500008704FF40071404601F062F9012803D15E
:104760002E600020BD490870DFF8E0822A68C34946
:10477000404601F0BDFE4246B749684601F0B8FE2A
:104780006846FCF72DFD0100684601F00AFF01F0C4
:10479000CAFD1421404601F0F5FD01F0BEFC0420E5
:1047A0002070C7E633000000DFF8D48298F80000DC
:1047B00000280AD1012088F80000B24AB24900203E
:1047C00001F074F9002001F096F9002192A001F0A7
:1047D00010FD012840F01A81002088F800005FF0E9
:1047E0001409DFF88082DFF880A2012288A198F8FE
:1047F000000009FB00F0504401F0AAFF002849D155
:1048000098F80000401C88F8000098F80000032881
:1048100002D1002088F800003878401C3870DFF89A
:10482000308201F0B1FC88F800009849844898F87B
:1048300000200B78C2540A78521C0A700A78032AA6
:1048400001D100220A70DFF8248290F90810069145
:1048500090F90710059190F90610049190F9051050
:10486000039190F90410029190F90310019190F9CD
:104870000210009190F9013090F9002084494046DF
:1048800001F036FE4046FCF7ABFC0100404601F06B
:1048900088FEADE001225FA198F8000009FB00F05E
:1048A000504401F055FF00284CD198F80000401CFE
:1048B00088F8000098F80000032802D1002088F84A
:1048C00000003878401C3870DFF8848101F05CFC0F
:1048D00088F800006F495A4898F800200B78034484
:1048E000DA700A78521C0A700A78032A01D1002271
:1048F0000A70DFF8788190F90810069190F9071096
:10490000059190F90610049190F90510039190F922
:104910000410029190F90310019190F90210009196
:1049200090F9013090F900205949404601F0E0FD2E
:104930004046FCF755FC0100404601F032FE57E0CE
:10494000610000000122310098F8000009FB00F925
:104950000AEB090001F0FCFE002849D198F800009C
:10496000401C88F8000098F80000032802D10020BD
:1049700088F800003878401C3870DFF8D48001F0E7
:1049800003FC88F8000044492D4898F800200B7873
:1049900003449A710A78521C0A700A78032A01D1DA
:1049A00000220A70DFF8C48090F90810069190F98F
:1049B0000710059190F90610049190F905100391E4
:1049C00090F90410029190F90310019190F90210EE
:1049D000009190F9013090F900202D49404601F0F6
:1049E00087FD4046FCF7FCFB0100404601F0D9FD85
:1049F0001A480078012807D13878022806D1032008
:104A000020700020387001E00320207092E500BF84
:104A10003100000032000000313000006C14002032
:104A20007F140020791400206F14002070140020DF
:104A300071140020721400207314002074140020DC
:104A400054140020601400207C140020000000207A
:104A50007A140020146D0008986C00087B14002064
:104A6000A0860100781400200814002030130020D4
:104A7000706C0008000C01401C6D0008246D0008DB
:104A80007E140020EF5B000820A1070075140020B1
:104A90006C6A000876140020771400202DE9FC4190
:104AA0000400002C01D10120DFE12078C0076BD584
:104AB000DFF89005016811F00C01042907D00168A6
:104AC00011F00C0108290CD10068C00309D5DFF8EA
:104AD00070050068800357D56068002854D1012014
:104AE000C3E16068B0F5803F06D1DFF85405016886
:104AF00051F48031016026E0606800280AD1DFF8B7
:104B00004005016831F480310160016831F4802191
:104B1000016018E06068B0F5A02F0AD1DFF8200529
:104B2000016851F480210160016851F48031016015
:104B300009E0DFF80C05016831F48031016001689B
:104B400031F480210160606800280ED001F014FE6D
:104B50000500DFF8EC040068800315D401F00CFEBA
:104B6000401B6528F5D303207FE101F005FE050019
:104B7000DFF8CC040068800306D501F0FDFD401B82
:104B80006528F5D3032070E1207880071ED5DFF873
:104B9000B404016811F00C0F07D0016811F00C018A
:104BA00008292CD10068C00329D4DFF894040168D7
:104BB000890704D52169012901D0012055E1016847
:104BC00031F0F801626951EAC20101602078000702
:104BD00049D5A069002871D00120DFF87C14086055
:104BE00001F0CAFD0500DFF86C040068800737D4C7
:104BF00001F0C2FD401B0328F5D3032035E12069F5
:104C000000281AD00120DFF85414086001F0B4FD28
:104C10000500DFF82C040168890706D401F0ACFD1B
:104C2000401B0328F5D303201FE1016831F0F80190
:104C3000626951EAC2010160C8E70020DFF81C1474
:104C4000086001F099FD0500DFF8F40300688007B3
:104C5000BCD501F091FD401B0328F5D3032004E1EE
:104C6000012000F0DBF92078400740F19680002613
:104C7000DFF8EC532868C00009D4286850F0805051
:104C80002860286810F08050009000980126DFF816
:104C9000D4733868C00524D4386850F48070386004
:104CA00001F06AFD80463868C0051AD401F064FD41
:104CB000B0EB08006528F6D30320D6E00020DFF82B
:104CC0009813086001F058FD0500DFF888030068BC
:104CD0008007C8D501F050FD401B0328F5D3032001
:104CE000C3E0E068012806D1DFF87C03016851F0D9
:104CF0000101016025E0E06800280AD1DFF86803BF
:104D00000168490849000160016831F0040101604F
:104D100017E0E06805280AD1DFF84C03016851F07C
:104D200004010160016851F00101016009E0DFF850
:104D300038030168490849000160016831F0040145
:104D40000160E068002810D001F016FD0700DFF8D0
:104D500018030068800719D401F00EFDC01B41F252
:104D600089318842F3D303207FE001F005FD07007D
:104D7000DFF8F4020068800708D501F0FDFCC01BD5
:104D800041F289318842F3D303206EE0F6B2012E5E
:104D900003D1286830F080502860E069002863D093
:104DA000DFF8A062306810F00C0008284AD0E069F3
:104DB000022834D1DFF8B4720020386001F0DCFC46
:104DC0008046DFF87C522868800107D501F0D4FCCA
:104DD000B0EB08000328F4D3032046E0206AB0F5C6
:104DE000803F05D1316831F40031A0680143316062
:104DF000316831F47411206A0143606A0143316003
:104E00000120386001F0B8FC0400286880012BD430
:104E100001F0B2FC001B0328F7D3032025E000209B
:104E2000DFF84812086001F0A7FC0400DFF8100268
:104E30000068800118D501F09FFC001B0328F5D302
:104E4000032012E0E069012801D101200DE0306863
:104E500010F48031226A914204D110F47010616A1A
:104E6000884201D0012000E00020BDE8F6812DE954
:104E7000F04104000E00002C01D1012098E0DFF881
:104E8000F051286810F00700B0420BD22868C00823
:104E9000C00030432860286810F00700B04201D0FD
:104EA000012085E02078800716D52078400704D5BA
:104EB0006448016851F4E06101602078000704D57E
:104EC0006048016851F4605101605E490A6832F03F
:104ED000F002A06802430A602078C00732D56068FB
:104EE000012805D156480068800310D401205FE0F6
:104EF0006068022805D152480068800107D401206B
:104F000056E04F480068800701D4012050E04D4F23
:104F100039688908890060680143396001F02CFC18
:104F20008046386810F00C006168B0EB810F09D042
:104F300001F022FCB0EB080041F289318842F0D345
:104F4000032035E0286810F0070086420BD228685D
:104F5000C008C00030432860286810F00700B04245
:104F600001D0012024E02078400706D535490A68A1
:104F700032F4E062E06802430A602078000707D557
:104F80003048016831F46051226951EAC201016080
:104F900000F010F837492B4A1268C2F30312895CFB
:104FA000C8402A4908602A48006800F033FE002003
:104FB000BDE8F08100B585B001A82F491022FCF7AB
:104FC0007FF92E480088ADF8000000200020002066
:104FD000002000201B4A116811F00C00042802D0A8
:104FE000082802D014E0184813E001A8C1F3834355
:104FF000C05CC90309D569461268C2F340428A5CA5
:1050000011494843B0FBF2F001E01D49484300E07C
:105010000D4805B000BD0D480068704781B00B49D0
:105020000968C9084FF47A72B1FBF2F14843009065
:1050300000BF0098411E00910028F9D101B07047CF
:10504000001002400410024000127A0018000020F4
:10505000140000202410024080044242000042421A
:105060001C100240007000402010024060004242CC
:1050700000200240B86C0008A86C00084613000825
:1050800000093D002DE9FC410400002000202078AB
:10509000C00757D50026374D2868C00009D42868B6
:1050A00050F080502860286810F0805000900098E0
:1050B0000126314F3868C00511D4386850F480702B
:1050C000386001F059FB80463868C00507D401F00C
:1050D00053FBB0EB08006528F6D3032047E0274FC9
:1050E000386810F4407000281FD0616811F44071D6
:1050F00088421AD0386830F44070214901220A6091
:1051000000220A603860C0070FD501F035FB8046E9
:105110003868800709D401F02FFBB0EB080041F29A
:1051200089318842F4D3032021E0396831F4407199
:10513000606801433960F6B2012E03D1286830F06F
:10514000805028602078800706D50E490A6832F41E
:105150004042A06802430A602078C00606D509498B
:105160000A6832F48002E06802430A600020BDE869
:10517000F68100001C100240007000402010024028
:10518000400442420410024010B50400002C01D13A
:1051900001203DE0606A00280020A06294F85100E0
:1051A000002805D1002084F85000200000F076FD92
:1051B000022084F851002068006830F04000216827
:1051C00008606168A0680143E06801432069014309
:1051D00060690143A06910F400700143E069014374
:1051E000206A0143A06A014320680160A069000CA5
:1051F00010F00400216848602068C06930F4006045
:105200002168C86100206065012084F851000020F9
:1052100010BD2DE9F84306000D0091461C00002743
:1052200096F85000012801D10220BFE0012086F845
:10523000500001F0A1FA8046494696F85100012835
:1052400001D00227AAE0002D03D0484680B20028F2
:1052500001D10127A2E0032086F8510000207065EB
:105260003563A6F83490A6F836900020B06300208D
:10527000B0870020F0870020706400203064B068A0
:10528000B0F5004F05D13068006850F480403268B6
:10529000106030680068400605D43068006850F03F
:1052A000400032681060F068B0F5006F2ED1706871
:1052B000002802D089B2012914D1306B00883168EE
:1052C000C860306B801C3063F08E401EF08609E0B1
:1052D000306B00883168C860306B801C3063F08EA2
:1052E000401EF086F08E00283FD03068806880072E
:1052F000EED401F041FAB0EB0800A04202D314F161
:10530000010F01D1002CEDD1032747E07068002880
:1053100002D089B2012914D1306B0078316808734A
:10532000306B401C3063F08E401EF08609E0306B1D
:10533000007831680873306B401C3063F08E401E7B
:10534000F086F08E002810D0306880688007EED498
:1053500001F012FAB0EB0800A04202D314F1010FE1
:1053600001D1002CEDD1032718E042462100300086
:1053700000F06BFA002801D020207065B06800288A
:1053800008D1002000903068C068009030688068C4
:1053900000900098706D002800D00127012086F849
:1053A0005100002086F850003800C0B2BDE8F283FA
:1053B0002DE9F84306000D0091461C000027706897
:1053C000B0F5827F0ED1B06800280BD1042086F89A
:1053D000510000944B469BB22A002900300000F097
:1053E0009AF896E096F85000012801D1022090E04A
:1053F000012086F8500001F0BFF9804696F8510070
:10540000012801D002277CE0002D03D0484680B25D
:10541000002801D1012774E0042086F85100002003
:105420007065B563A6F83C90A6F83E900020306306
:105430000020B0860020F0860020306400207064D8
:10544000B068B0F5004F05D13068006830F4804096
:105450003168086030680068400605D4306800682C
:1054600050F0400031680860F068002828D109E059
:105470003068007BB16B0870B06B401CB063F08F7C
:10548000401EF087F08F00282ED030688068C0075B
:10549000EED401F071F9B0EB0800A04202D314F190
:1054A000010F01D1002CEDD103272AE03068C0683C
:1054B000B16B0880B06B801CB063F08F401EF0872A
:1054C000F08F002810D030688068C007EED401F05B
:1054D00053F9B0EB0800A04202D314F1010F01D13F
:1054E000002CEDD103270CE042462100300000F0F3
:1054F00071F9002801D020207065706D002800D05F
:105500000127012086F85100002086F8500038005D
:10551000C0B2BDE8F2832DE9FC4705000C009146BE
:105520009A465FF00108002695F85000012801D145
:105530000220FDE0012085F8500001F01DF9070070
:1055400095F85120686851461300DBB2012B0AD050
:10555000B0F5827F05D1A868002802D1D2B2042A12
:1055600001D00226DCE0002C06D0B9F1000F03D0F8
:10557000504680B2002801D10126D1E095F85100B3
:10558000042802D0052085F8510000206865C5F880
:105590003890A5F83EA0A5F83CA02C63A5F836A04D
:1055A000A5F834A0002028640020686428680068FA
:1055B000400605D42868006850F040002A68106052
:1055C0000A9CE868B0F5006F48D16868002802D0EE
:1055D00089B2012909D1286B00882968C860286B25
:1055E000801C2863E88E401EE886E88E002802D1E1
:1055F000E88F00287DD028688068800711D5E88E64
:1056000000280ED0B8F1010F0BD1286B0088296853
:10561000C860286B801C2863E88E401EE8865FF017
:10562000000828688068C0070ED5E88F00280BD0D6
:105630002868C068A96B0880A86B801CA863E88FE5
:10564000401EE8875FF0010801F096F8C01BA042F9
:10565000CBD314F1010FC8D0032661E0686800289D
:1056600002D089B2012909D1286B00782968087312
:10567000286B401C2863E88E401EE886E88E0028D0
:1056800002D1E88F002834D028688068800711D5BF
:10569000E88E00280ED0B8F1010F0BD1286B0078EE
:1056A00029680873286B401C2863E88E401EE88632
:1056B0005FF0000828688068C0070ED5E88F0028D2
:1056C0000BD02868C068A96B0870A86B401CA86341
:1056D000E88F401EE8875FF0010801F04DF8C01B1D
:1056E000A04202D314F1010F01D1002CC6D1032630
:1056F00016E03A002100280000F0A7F8002803D0A7
:105700000126202068650BE0A868002808D1002049
:1057100000902868C0680090286880680090009811
:10572000012085F85100002085F850003000C0B2FB
:10573000BDE8F6872DE9F04105000E0090461C00FB
:10574000069F286880683040B04201D1012000E007
:1057500000204146C9B2884239D014F1010FF0D07F
:1057600001F00AF8C01BA04201D2002CE9D1286840
:10577000406830F0E000296848606868B0F5827FD2
:105780000DD1A868B0F5004F03D0A868B0F5806FC0
:1057900005D12868006830F0400029680860A86AD0
:1057A000B0F5005F0BD12868006830F4005029681C
:1057B00008602868006850F40050296808600120DB
:1057C00085F85100002085F85000032000E00020FB
:1057D000BDE8F0811CB504000B006068B0F5827F65
:1057E0000DD1A068B0F5004F03D0A068B0F5806F70
:1057F00005D12068006830F04000216808606068CA
:10580000B0F5827F11D1A068B0F5806F0DD1009204
:10581000002201212000FFF78DFF002813D0606DCA
:1058200050F02000606503200EE0009200228021ED
:105830002000FFF77FFF002805D0606D50F02000AA
:105840006065032000E0002016BD1CB504000B00BD
:105850000092002280212000FFF76CFF002805D075
:10586000606D50F020006065032000E0002016BD50
:10587000F8B502000023002514E0DFF8E80106680F
:1058800036EA040404600CE0DFF8DC010668A64395
:10589000066048688002F0D5DFF8C8010668344326
:1058A00004605B1C0868D840002800F0B88001261E
:1058B0009E400C683440B442F3D14868002827D099
:1058C00001281AD002281DD003282FD0112816D065
:1058D00012281AD0654FB8421AD0654FB84217D077
:1058E000644FB84214D0644FB84211D0634FB842ED
:1058F0000ED0634FB8420BD01AE0CD6818E0CD68E7
:105900002D1D15E0CD68083512E0CD680C350FE08F
:105910008868002801D1042507E08868012802D1A1
:105920000825166101E00825566101E00025FFE722
:10593000B4F5807F01D2170000E0171DB4F5807F19
:1059400002D25FEA830C03E0B3F1080C5FEA8C0C2F
:105950000F26D7F800E016FA0CF03EEA000E15FA12
:105960000CFC5CEA0E0CC7F800C04868C00098D573
:105970004448076857F001070760006810F001000D
:1059800000900098404F1800800857F820C013F08E
:105990000300C0B2800086403CEA060C3B488242CD
:1059A00001D100260FE03A48824201D101260AE0E7
:1059B0003848824201D1022605E03748824201D1AF
:1059C000032600E0042613F00300C0B280008640E6
:1059D00056EA0C0C1800800847F820C04868C0033D
:1059E00004D52E4806682643066003E02B48066867
:1059F000A64306604868800304D529480668264304
:105A0000066003E026480668A64306604868C002B0
:105A10007FF53AAF144806682643066039E7F1BDC2
:105A2000806889B2084201D0012000E00020C0B2A5
:105A30007047D2B2002A02D089B2016102E089B275
:105A400009040161704780B516490A6803009BB2DA
:105A50001A4205D0020092B20A6080B200F024F827
:105A600001BD00000C0401400804014000001110B9
:105A70000000121000002110000022100000311060
:105A800000003210181002400800014000080140D8
:105A9000000C0140001001400014014000040140CE
:105AA00004040140140401407047000010B4554B39
:105AB0000400E4B224011C4461600100C9B2090180
:105AC0001944097A11F0FE010400E4B224011C44D7
:105AD00021720100C9B209011944097A11F0FD01CE
